{
  "_format": "hh-sol-artifact-1",
  "contractName": "TikTok",
  "sourceName": "contracts/TikTok.sol",
  "abi": [
    {
      "inputs": [],
      "stateMutability": "payable",
      "type": "constructor"
    },
    {
      "inputs": [],
      "name": "Owner",
      "outputs": [
        {
          "internalType": "address",
          "name": "",
          "type": "address"
        }
      ],
      "stateMutability": "view",
      "type": "function"
    },
    {
      "inputs": [],
      "name": "balance",
      "outputs": [
        {
          "internalType": "uint256",
          "name": "",
          "type": "uint256"
        }
      ],
      "stateMutability": "view",
      "type": "function"
    },
    {
      "inputs": [
        {
          "internalType": "address",
          "name": "",
          "type": "address"
        }
      ],
      "name": "balances",
      "outputs": [
        {
          "internalType": "uint256",
          "name": "",
          "type": "uint256"
        }
      ],
      "stateMutability": "view",
      "type": "function"
    },
    {
      "inputs": [],
      "name": "deposite",
      "outputs": [],
      "stateMutability": "payable",
      "type": "function"
    },
    {
      "inputs": [
        {
          "internalType": "address",
          "name": "_addr",
          "type": "address"
        }
      ],
      "name": "getBalance",
      "outputs": [
        {
          "internalType": "uint256",
          "name": "",
          "type": "uint256"
        }
      ],
      "stateMutability": "view",
      "type": "function"
    }
  ],
  "bytecode": "0x6080604052336000806101000a81548173ffffffffffffffffffffffffffffffffffffffff021916908373ffffffffffffffffffffffffffffffffffffffff1602179055503460028190555061059c8061005a6000396000f3fe60806040526004361061004a5760003560e01c806327e235e31461004f578063a50ec3261461008c578063b4a99a4e14610096578063b69ef8a8146100c1578063f8b2cb4f146100ec575b600080fd5b34801561005b57600080fd5b506100766004803603810190610071919061036d565b610129565b60405161008391906103b3565b60405180910390f35b610094610141565b005b3480156100a257600080fd5b506100ab610228565b6040516100b891906103dd565b60405180910390f35b3480156100cd57600080fd5b506100d661024c565b6040516100e391906103b3565b60405180910390f35b3480156100f857600080fd5b50610113600480360381019061010e919061036d565b610252565b60405161012091906103b3565b60405180910390f35b60016020528060005260406000206000915090505481565b60008054906101000a900473ffffffffffffffffffffffffffffffffffffffff1673ffffffffffffffffffffffffffffffffffffffff163373ffffffffffffffffffffffffffffffffffffffff1614156101d0576040517f08c379a00000000000000000000000000000000000000000000000000000000081526004016101c790610455565b60405180910390fd5b34600160003373ffffffffffffffffffffffffffffffffffffffff1673ffffffffffffffffffffffffffffffffffffffff168152602001908152602001600020600082825461021f91906104a4565b92505081905550565b60008054906101000a900473ffffffffffffffffffffffffffffffffffffffff1681565b60025481565b60008073ffffffffffffffffffffffffffffffffffffffff168273ffffffffffffffffffffffffffffffffffffffff1614156102c3576040517f08c379a00000000000000000000000000000000000000000000000000000000081526004016102ba90610546565b60405180910390fd5b600160008373ffffffffffffffffffffffffffffffffffffffff1673ffffffffffffffffffffffffffffffffffffffff168152602001908152602001600020549050919050565b600080fd5b600073ffffffffffffffffffffffffffffffffffffffff82169050919050565b600061033a8261030f565b9050919050565b61034a8161032f565b811461035557600080fd5b50565b60008135905061036781610341565b92915050565b6000602082840312156103835761038261030a565b5b600061039184828501610358565b91505092915050565b6000819050919050565b6103ad8161039a565b82525050565b60006020820190506103c860008301846103a4565b92915050565b6103d78161032f565b82525050565b60006020820190506103f260008301846103ce565b92915050565b600082825260208201905092915050565b7f63616e206e6f20746865206f776e657200000000000000000000000000000000600082015250565b600061043f6010836103f8565b915061044a82610409565b602082019050919050565b6000602082019050818103600083015261046e81610432565b9050919050565b7f4e487b7100000000000000000000000000000000000000000000000000000000600052601160045260246000fd5b60006104af8261039a565b91506104ba8361039a565b9250827fffffffffffffffffffffffffffffffffffffffffffffffffffffffffffffffff038211156104ef576104ee610475565b5b828201905092915050565b7f6164647265737320696e70757420696e76616c69640000000000000000000000600082015250565b60006105306015836103f8565b915061053b826104fa565b602082019050919050565b6000602082019050818103600083015261055f81610523565b905091905056fea2646970667358221220f9d6bb2c7b38e31abfb3b5facde2f6536c78f5b48e6dbe0fa2d927df432059d764736f6c63430008090033",
  "linkReferences": {},
  "deployedLinkReferences": {}
}